:0400000003000610e3
:04000100000000c932
:04000200000000d921
:04000300000000db1e
:0400040000000000f8
:0400050000000000f7
:0400060000000000f6
:0400070000000000f5
:0400080000000000f4
:0400090000000000f3
:04000a0000000000f2
:04000b00000000dd14
:04000c0000000000f0
:04000d0000000000ef
:04000e00000000df0f
:04000f000000046d7c
:04001000000005c91e
:040011000000047176
:04001200000004895d
:040013000000032bbb
:040014000000045193
:040015000000046b78
:0400160000000000e6
:04001700000000e302
:0400180000000000e4
:0400190000000000e3
:04001a00000000e3ff
:04001b00000000e3fe
:04001c000000046973
:04001d000000045388
:04001e0000000000de
:04001f000000046772
:04002000000002e7f3
:04002100000002e5f4
:04002200000002e9ef
:04002300000000e3f6
:04002400000000e3f5
:0400250000000000d7
:0400260000000000d6
:0400270000000000d5
:0400280000000000d4
:0400290000000000d3
:04002a0000000000d2
:04002b00000000e3ee
:04002c00000000e3ed
:04002d0046854803b9
:04002e00f902f000e3
:04002f00470048003e
:04003000000006f9cd
:0400310003000610b2
:040032001e4048061e
:04003300bf00d1fd3c
:04003400bf00bf004a
:040035004700480434
:04003600e7fee7fefc
:04003700e7fee7fefb
:04003800e7fee7fefa
:0400390000000020a3
:04003a00000000b50d
:04003b00e001b2d25c
:04003c001c407002f2
:04003d00d2fb1e498b
:04003e0022004770e5
:04003f00b510e7f61b
:04004000460a461313
:040041004619460412
:04004200fff0f7ffd5
:04004300bd10462086
:04004400b57046024b
:040045000fd3404a4b
:04004600004007db94
:04004700004ad02d6e
:040048000e01d02aab
:0400490002000e148f
:04004a00190902127c
:04004b000a520a400b
:04004c0001e518842e
:04004d0043544604ce
:04004e000a120a0088
:04004f004350042ee8
:04005000194219a494
:0400510043c50c2077
:040052000c1218aaca
:0400530003ad2501d3
:0400540019521c52cf
:04005500397f0412d9
:04005600d0000424ae
:0400570043101c52e4
:040058000040d4018f
:04005900b2c21e49c8
:04005a0009c0060cc7
:04005b001c4018200d
:04005c002a800840ae
:04005d00e003d002ea
:04005e00bd70200051
:04005f000040084015
:04006000da00290099
:040061004318200020
:04006200b570bd7048
:04006300404a4602c7
:0400640000400fd574
:0400650007ed004a59
:0400660008520840f4
:04006700d014280089
:04006800d0122a0088
:040069000dd30dc4e2
:04006a00200102412e
:04006b00025205c078
:04006c000a520a49e1
:04006d0018091ae470
:04006e00347d1812b3
:04006f00d3014291e6
:04007000e0001c642c
:040071002c00004916
:040072002000da018f
:040073002300bd7039
:04007400d3014291e1
:0400750043031a899e
:0400760000490840f5
:04007700d1f7280095
:04007800d00a290081
:04007900d1024291dd
:04007a0007c9210190
:04007b004291e005c9
:04007c002101d2018b
:04007d002101e0017c
:04007e0005e043c98d
:04007f00194018c04c
:04008000f81cf00078
:04008100b510bd7089
:04008200239622009f
:04008300f000461132
:04008400bd10f81d96
:0400850002400041f4
:040086000a40220109
:040087000e0905d287
:04008800297f188034
:040089002000da0178
:04008a0029964770fc
:04008b002296dc03da
:04008c0040c81a51fd
:04008d0039964770e9
:04008e0047704088ef
:04008f00da04290066
:0400900000491c40c7
:040091000840d10151
:040092004770004073
:040093002400b47021
:04009400d1050c0581
:04009500040024102f
:040096002900d1026a
:040097002411d0213f
:04009800d1010e057f
:040099003408020025
:04009a00d1010f057c
:04009b001d2401001f
:04009c00d1010f85fa
:04009d001ca400801f
:04009e00db0128005a
:04009f001c6400409d
:0400a000d00829005b
:0400a1001b2e2520cd
:0400a20040f5460dd2
:0400a300d00040a1a8
:0400a40043292101ca
:0400a5000601430805
:0400a6000a001b1b16
:0400a700d5021ddb86
:0400a800bc70200008
:0400a90005db4770bc
:0400aa00188018188a
:0400ab00daf8290056
:0400ac0000491c40ab
:0400ad00bc70d1f55d
:0400ae0000400840c6
:0400af000000477096
:0400b00025014c06d4
:0400b100e0054e0612
:0400b200cc0768e32c
:0400b3003c0c432b93
:0400b4003410479825
:0400b500d3f742b487
:0400b600fef0f7ff62
:0400b7000000071c22
:0400b8000000073c01
:0400b90047704770d5
:0400ba00068020019b
:0400bb0049026b800b
:0400bc0020016008b7
:0400bd004770600820
:0400be000300000437
:0400bf004604b5102e
:0400c00000c9217dd5
:0400c1004608436149
:0400c200f801f00051
:0400c300b501bd10b6
:0400c4002000b081e7
:0400c500e0039000c4
:0400c6009800bf00df
:0400c70090001c4049
:0400c8009800990102
:0400c900dbf7428897
:0400ca004770bd0cb2
:0400cb00794bb510a8
:0400cc00d1042b012f
:0400cd00680c69034f
:0400ce006103432364
:0400cf006903e003de
:0400d00043a3680cd2
:0400d100790b610343
:0400d200d1042b0129
:0400d300680c6a0348
:0400d400620343235d
:0400d5006a03e003d7
:0400d60043a3680ccc
:0400d7004b3b62033a
:0400d800d102429877
:0400d90032504a391e
:0400da004a38e001bf
:0400db00798b325497
:0400dc00d1442b01df
:0400dd002b20680b61
:0400de00680bd03c9f
:0400df00d0392b40a9
:0400e0002b80680bfe
:0400e10024ffd036f2
:0400e200680b340172
:0400e300d03142a333
:0400e400680b00e4c1
:0400e500d02d42a335
:0400e600680b00643f
:0400e700d02942a337
:0400e800680b01247c
:0400e900d02542a339
:0400ea00680b01643a
:0400eb00d02142a33b
:0400ec00680b006439
:0400ed00d01d42a33d
:0400ee00680b006437
:0400ef00d01942a33f
:0400f000680b006435
:0400f100d01542a341
:0400f200680b006433
:0400f300d01142a343
:0400f400680b006431
:0400f500d00d42a345
:0400f600680b00642f
:0400f700d00942a347
:0400f800680b00642d
:0400f900d00542a349
:0400fa002b01680b63
:0400fb00680bd002bc
:0400fc00d1292b02d9
:0400fd00680c681310
:0400fe006013432325
:0400ff00798be024f5
:04010000d11d2b02e0
:04010100036424016e
:0401020042a3680ba1
:040103000064d013b1
:0401040042a3680b9f
:0401050000e4d00f33
:0401060042a3680b9d
:040107000064d00bb5
:0401080042a3680b9b
:040109000064d007b7
:04010a0042a3680b99
:04010b000064d003b9
:04010c0042a3680b97
:04010d006813d1089a
:04010e004323680c13
:04010f00e003601396
:04011000680c6813fc
:04011100601343a391
:040112000000bd101c
:0401130010000100d7
:040114004770477079
:0401150007002001be
:04011600210188003b
:04011700430802890e
:0401180080080489ce
:040119004770477074
:04011a004770477073
:04011b004770477072
:04011c004804b510ce
:04011d00f818f000de
:04011e00d0022800e3
:04011f00f0004801a3
:04012000bd10f80f07
:0401210010000900c1
:040122004804b510c8
:04012300f80cf000e4
:04012400d0022800dd
:04012500f00048019d
:04012600bd10f8030d
:0401270010000914a7
:0401280068c846015c
:040129004770b2c0a9
:04012a006908460119
:04012b004770b2c0a7
:04012c00b089b500e1
:04012d00a8032118ea
:04012e00fe1ff7ffba
:04012f00900120001b
:040130002001900218
:0401310090010580b4
:0401320046682100fa
:0401330021017241f3
:04013400a9017201aa
:04013500f7ff480e7a
:040136002001ff297c
:04013700900105c06e
:0401380046682101f3
:04013900720172419c
:04013a004809a901c6
:04013b00ff1ef7ffad
:04013c009004200308
:04013d009006200008
:04013e009005200107
:04013f0001c0204b90
:04014000f7ff900332
:04014100a803ffa769
:04014200f804f000cd
:04014300bd00b00942
:0401440010000100a6
:040145004604b5f8bf
:040146004827bf0087
:0401470007c0698004
:0401480028000fc0bc
:040149004925d1f97a
:04014a00460860c83b
:04014b00218068c0e7
:04014c0049224308f9
:04014d00682060c8fe
:04014e00fe65f7ff54
:04014f0049204607f6
:04015000fde6f7ffd2
:0401510046314606e7
:04015200f7ff481e4d
:040153004605fe1e41
:04015400fe60f7ff53
:0401550049191c40e8
:04015600200060081d
:0401570046086048ae
:04015800686168c0b2
:0401590049154308f9
:04015a00460860c82b
:04015b0068a168c06f
:04015c0000890849c5
:04015d0049114308f9
:04015e00460860c827
:04015f0068e168c02b
:04016000430800c987
:0401610060c8490d1c
:0401620028006960a8
:040163004608d10673
:0401640021c06880ce
:0401650049094308f9
:04016600e0056088c8
:04016700688048075d
:04016800438821c0e7
:04016900608849055c
:04016a0068c048041d
:04016b004388218024
:04016c0060c849021c
:04016d000000bdf8d9
:04016e0010000c0071
:04016f0010000b0071
:0401700040680000e3
:0401710049742400a9
:0401720000004770d2
:04017300b510b40f00
:040174004b04a9038c
:0401750098024a049e
:04017600f817f00086
:04017700bc08bc10f4
:040178004718b00470
:04017900000006dd9f
:04017a000300000876
:04017b00c808e002ce
:04017c00c1081f1285
:04017d00d1fa2a0089
:04017e00477047700f
:04017f00e00120007b
:040180001f12c10188
:04018100d1fb2a0084
:04018200b5ff47700e
:040183004605b081fc
:04018400e00627006a
:04018500d00a28254f
:0401860099039a043b
:040187001c6d479014
:0401880078281c7f38
:04018900d1f5280084
:04018a00b00546383e
:04018b002200bdf0a1
:04018c001c6d786905
:04018d00292e4610c1
:04018e007869d113a8
:04018f001c6d2204bd
:04019000d109292a3e
:040191001c6d990246
:040192009102c9010c
:04019300230ae00952
:040194003830435864
:040195001c6d1808bd
:04019600460b782973
:040197002b093b30c5
:04019800782bd9f5f2
:04019900d0df2b0088
:04019a00d0072b63fc
:04019b00d0102b73e2
:04019c0046189a0463
:04019d0047909903eb
:04019e00e02d1c7fb5
:04019f00466c99020f
:0401a0007023780b45
:0401a10091021d09a1
:0401a2007061210067
:0401a3002101466e82
:0401a4009902e004d8
:0401a5009102c940ba
:0401a60043c9210028
:0401a700d50a07521c
:0401a800e00024004f
:0401a90042841c640c
:0401aa00428cda0d9c
:0401ab005d32dbfaec
:0401ac00d1f72a005d
:0401ad002400e00743
:0401ae001c64e000ed
:0401af00dbfc428ca7
:0401b00028005d3096
:0401b100193fd1f928
:0401b2007830e004bd
:0401b3001c769a0418
:0401b40047909903d4
:0401b500d2f81e64fa
:0401b600e7a21c6d33
:0401b7004b05b2c280
:0401b800bf00601a0a
:0401b90069524a033a
:0401ba00401a234084
:0401bb00d0f92a004d
:0401bc000000477088
:0401bd0010000b0023
:0401be00fedaf7ff6f
:0401bf002064e006d2
:0401c000fdfcf7ff4c
:0401c100a004a102f3
:0401c200ff60f7ffe4
:0401c3000000e7f75a
:0401c4006c6c656892
:0401c500000a0d6fb0
:0401c600000073259d
:0401c7000000073cf1
:0401c8000300000030
:0401c9000000000c26
:0401ca00000005ec40
:0401cb0000000748e1
:0401cc000300000c20
:0401cd000000060424
:0401ce00000005fc2c
:0401cf00000000002c
:0401d000000000002b
:0401d100000000002a
:00000001FF
