:020000040000FA
:1000000010060003C9000000D9000000DB0000005A
:1000100000000000000000000000000000000000E0
:10002000000000000000000000000000DD000000F3
:100030000000000000000000DF0000006D04000070
:10004000C905000071040000890400002B030000B2
:10005000510400006B04000000000000E3000000F9
:100060000000000000000000E3000000E3000000CA
:100070006904000053040000000000006704000051
:10008000E7020000E5020000E9020000E3000000D2
:10009000E30000000000000000000000000000007D
:1000A000000000000000000000000000E30000006D
:1000B000E30000000348854600F002F900480047CD
:1000C000F9060000100600030648401EFDD100BFDF
:1000D00000BF00BF04480047FEE7FEE7FEE7FEE77B
:1000E000FEE7FEE720000000B5000000D2B201E00C
:1000F0000270401C491EFBD270470022F6E710B583
:1001000013460A4604461946FFF7F0FF204610BD85
:10011000024670B54A40D30FDB0740002DD04A009D
:100120002AD0010E140E000212020919400A520AC6
:100130008418E50104465443000A120A2E04504371
:10014000A4194219200CC543AA18120C0125AD03AD
:10015000521C521912047F39240400D0521C10433F
:1001600001D44000491EC2B20C06C0092018401C30
:100170004008802A02D003E0002070BD4008400003
:10018000002900DA0020184370BD70B502464A40CD
:10019000D50F40004A00ED0740085208002814D04F
:1001A000002A12D0C40DD30D41020120C005520215
:1001B000490A520AE41A091812187D34914201D3EF
:1001C000641C00E04900002C01DA002070BD00230F
:1001D000914201D3891A0343400849000028F7D10E
:1001E00000290AD0914202D10121C90705E09142BC
:1001F00001D2012101E00121C943E005C0184019E5
:1002000000F01CF870BD10B500229623114600F0D6
:100210001DF810BD410040020122400AD205090E1E
:1002200080187F2901DA00207047962903DC962286
:10023000511AC8407047963988407047002904DA3F
:10024000401C490001D140084000704770B40024B0
:10025000050C05D11024000402D1002921D011245D
:10026000050E01D100020834050F01D10001241D43
:10027000850F01D18000A41C002801DB4000641C14
:10028000002908D020252E1B0D46F540A14000D0A6
:1002900001212943084301061B1B000ADB1D02D56F
:1002A000002070BC7047DB05181880180029F8DAA8
:1002B000401C4900F5D170BC400840007047000068
:1002C000064C0125064E05E0E36807CC2B430C3CA9
:1002D00098471034B442F7D3FFF7F0FE1C07000034
:1002E0003C0700007047704701208006806B024980
:1002F00008600120086070470400000310B5044640
:100300007D21C9006143084600F001F810BD01B528
:1003100081B00020009003E000BF0098401C0090D6
:10032000019900988842F7DB0CBD704710B54B79F6
:10033000012B04D103690C682343036103E00369C3
:100340000C68A34303610B79012B04D1036A0C6889
:100350002343036203E0036A0C68A34303623B4B3D
:10036000984202D1394A503201E0384A54328B79EE
:10037000012B44D10B68202B3CD00B68402B39D08B
:100380000B68802B36D0FF2401340B68A34231D098
:10039000E4000B68A3422DD064000B68A34229D06F
:1003A00024010B68A34225D064010B68A34221D02D
:1003B00064000B68A3421DD064000B68A34219D0EF
:1003C00064000B68A34215D064000B68A34211D0EF
:1003D00064000B68A3420DD064000B68A34209D0EF
:1003E00064000B68A34205D00B68012B02D00B6898
:1003F000022B29D113680C682343136024E08B7906
:10040000022B1DD1012464030B68A34213D06400A6
:100410000B68A3420FD0E4000B68A3420BD064002A
:100420000B68A34207D064000B68A34203D06400AA
:100430000B68A34208D113680C682343136003E0E0
:1004400013680C68A343136010BD00000001001086
:100450007047704701200007008801218902084386
:10046000890408807047704770477047704770472D
:1004700010B5044800F018F8002802D0014800F038
:100480000FF810BD0009001010B5044800F00CF87A
:10049000002802D0014800F003F810BD1409001034
:1004A0000146C868C0B2704701460869C0B27047CB
:1004B00000B589B0182103A8FFF71FFE00200190A6
:1004C00002900120800501900021684641720121BF
:1004D000017201A90E48FFF729FF0120C005019014
:1004E000012168464172017201A90948FFF71EFF08
:1004F0000320049000200690012005904B20C001AD
:100500000390FFF7A7FF03A800F004F809B000BDAF
:1005100000010010F8B5044600BF27488069C007F5
:10052000C00F0028F9D12549C8600846C06880215D
:1005300008432249C8602068FFF765FE0746204946
:10054000FFF7E6FD064631461E48FFF71EFE05464C
:10055000FFF760FE401C194908600020486008460B
:10056000C068616808431549C8600846C068A1684A
:100570004908890008431149C8600846C068E16815
:10058000C90008430D49C8606069002806D10846C3
:100590008068C02108430949886005E007488068F1
:1005A000C0218843054988600448C0688021884389
:1005B0000249C860F8BD0000000C0010000B0010DC
:1005C0000000684000247449704700000FB410B563
:1005D00003A9044B044A029800F017F810BC08BCA9
:1005E00004B01847DD0600000800000302E008C858
:1005F000121F08C1002AFAD170477047002001E09D
:1006000001C1121F002AFBD17047FFB581B005461A
:10061000002706E025280AD0049A039990476D1C0C
:100620007F1C28780028F5D1384605B0F0BD00229F
:1006300069786D1C10462E2913D1697804226D1C2F
:100640002A2909D102996D1C01C9029109E00A23E6
:100650005843303808186D1C29780B46303B092B5D
:10066000F5D92B78002BDFD0632B07D0732B10D05C
:10067000049A1846039990477F1C2DE002996C4616
:100680000B782370091D0291002161706E460121D3
:1006900004E0029940C902910021C94352070AD5DA
:1006A000002400E0641C84420DDA8C42FADB325DE7
:1006B000002AF7D107E0002400E0641C8C42FCDB38
:1006C000305D0028F9D13F1904E03078049A761C97
:1006D00003999047641EF8D26D1CA2E7C2B2054B85
:1006E0001A6000BF034A526940231A40002AF9D019
:1006F00070470000000B0010FFF7DAFE06E06420F0
:10070000FFF7FCFD02A104A0FFF760FFF7E7000080
:1007100068656C6C6F0D0A00257300003C070000D3
:10072000000000030C000000EC050000480700007A
:100730000C00000304060000FC050000000000009F
:080740000000000000000000B1
:04000005000000B542
:00000001FF
